:08000000803102288731E92F4D
:1005EA00640080010131890BF62A0034FE001200F2
:1005FA001E00FE0BFC2A0034062BFF30F007FF30EA
:10060A00F13DF11F092B0A2B022B08002000670875
:10061A00F6007630F2007730F300F401F40A8531FF
:10062A001F258331080020006608F6007630F200A4
:10063A007730F300F401F40A85311F25833108006D
:10064A0020006808F7007730F2007608F300F4011A
:10065A00F40A85311F25833108005034733450342D
:10066A00733401348034E134E234FF3430343034CA
:10067A00303431343134F0007008031D452B462BD9
:10068A00492B22008C10502B7003031D4D2B4E2B2F
:10069A00502B22008C140800F700F801F9017708A2
:1006AA00F800FF30F9007830F2007608F3000230E3
:1006BA00F40085311F2583310800F6007603FF3ADE
:1006CA00F30070087302F4007108F40272087402ED
:1006DA00FE3EF500A0302000D7000130D800760891
:1006EA00D9007008DA007108DB007208DC007508AE
:1006FA00DD0008002000A900E40129087039031967
:10070A00872B882B952B2730AA007030AB002A3014
:10071A00F2002730F3000230F40085311F258331BF
:10072A005730F2002030F3000730F40085311F25DE
:10073A00833101308331402383312D30F000003082
:10074A00F100833101238331003083314023833127
:10075A000800FA30F0000030F1007808F30077085A
:10076A00F2008331E22383317008FF3E2000A000AB
:10077A00FF30713DA1000F307802A13003197702D2
:10078A00031CC82BC92BCD2B0F30A0000030A100B1
:10079A002430A2002008FB000430FB35890BD22B41
:1007AA007B087904A3002230F2007A08F3000230B1
:1007BA00F40085311F2583310800F401F501700822
:1007CA0071040319E92BEA2B172C0130F600F42BDC
:1007DA000130F035F10D890BEE2B0130F607F11FD0
:1007EA00F72BF82BED2B0130F435F50D890BF92B8E
:1007FA0071087302031D032C70087202031C062C75
:10080A00072C0C2C7008F2027108F33B74140130A7
:10081A00F136F00C890B0D2C0130F602031D162C53
:10082A00172CF82B7508F1007408F0000800F6017F
:10083A00F60A003085317025843127302000A8005F
:10084A007030A9002830F2002630F3000230F4009C
:10085A0085311F2584312A302000A80079088600B6
:10086A0087010108A900790A860087010108AA0000
:10087A007908023E860087010108AB007908033E29
:10088A00860087010108AC007908043E86008701CA
:10089A000108AD002830F2002630F3000630F400DB
:1008AA0085311F25843108002000A2007B08F6004C
:1008BA0006308331512384317B0A8600870101087F
:1008CA002000A3007A08FC00FC0D23087C06F939F5
:1008DA007C06A3002208FC000130FC36890B722C2E
:1008EA007C080139FD00FD0EFD0D23087D06DF3968
:1008FA007D06A30022080139FC00FC0DFC0DFC0D4D
:10090A0023087C06F7397C06A3002630A0002308BA
:10091A00A1002030F2007B08F3000230F400853198
:10092A001F25843108002430F6001D3083315123FD
:10093A00843120006308A1006208A0002030F20080
:10094A007A08F3000230F40085311F2584312630FD
:10095A00F6001D3083315123843120002708031902
:10096A00B72CB82CD82C6108A3006008A20025086F
:10097A002706031DC12CC22CCB2C2230F2007A0888
:10098A00F3000230F40085311F2584311D30200028
:10099A00A200A3012230F2007A08F3000230F40028
:1009AA0085311F2584310800F7003130F8007708B7
:1009BA00F9007830F2007608F3000230F40085314D
:1009CA001F2584313230F8007830F2007608F300BF
:1009DA000230F40085311F2584313330F800783035
:1009EA00F2007608F3000230F40085311F258431C5
:1009FA003430F8007830F2007608F3000230F40060
:100A0A0085311F2584313530F8007830F2007608B8
:100A1A00F3000230F40085311F2584313630F800A6
:100A2A007830F2007608F3000230F40085311F2591
:100A3A00843108007403031D232D242D382D220030
:100A4A008E11720886008701010824009100141C87
:100A5A002F2D302D2C2D7308860087011108810057
:100A6A0022008E15682D22008E11F501602D1108C5
:100A7A0024001418412D422D3C2D7208750786005A
:100A8A00870101089100141C4B2D4C2D482D951FF0
:100A9A004F2D502D582D9513730875078600870121
:100AAA00FF3081005E2D73087507860087011108E3
:100ABA0081000130F50774087502031C652D662D47
:100ACA003D2D22008E152D30F0000030F1008331CB
:100ADA000123853108002000A2005408A500A515AD
:100AEA00760801392511031D25152513A51225128E
:100AFA00A12DA51425140130833140238531BA2D47
:100B0A00A51425100130833140238531BA2DA5144F
:100B1A0025100130833140238531BA2DA5142510C3
:100B2A000030833140238531BA2DA51025100030BD
:100B3A00833140238531BA2D2208F700F80178085D
:100B4A00003A0319A92DBA2D7708003A03197E2D08
:100B5A00013A0319852D033A03198C2D013A031919
:100B6A00932D073A03199A2DBA2D20302000A3009D
:100B7A002508A4002330F2002030F3000230F400EC
:100B8A0085311F2585311030F0002730F10083317F
:100B9A000123853108002000A900AA01DC30F700F2
:100BAA000530F8000F30F9002B30FA008331AE23FC
:100BBA008531FA012B30FB0000308431592485310C
:100BCA002B30FA008431982485313C302000AD0066
:100BDA00AE012D30F2002B30F3000230F4008531E3
:100BEA001F25853121302000AD003F30AE002D3069
:100BFA00F2002B30F3000230F40085311F258531D5
:100C0A0022302000AD000330AE002D30F2002B3030
:100C1A00F3000230F40085311F2585312B30F600B0
:100C2A00200028088431D924853123302000AD00E2
:100C3A000330AE002D30F2002B30F3000230F40006
:100C4A0085311F25853125302000AD0029087F39DF
:100C5A00AE002D30F2002B30F3000230F400853163
:100C6A001F25853127302000AD007030AE002D30B1
:100C7A00F2002B30F3000230F40085311F25853154
:100C8A0083310B238531833118238531F601F60A26
:100C9A0004308531702585312B30F60000308331E0
:100CAA005123853120002C080C3903195D2E5E2E44
:100CBA00602E0130AA002A08080021000C10220028
:100CCA000C1021008C100030833140238631210022
:100CDA008C1623008C1220008C1E742E752E772EF3
:100CEA000130D60021008E1623008E1221000E102C
:100CFA0018303D00A00021008E1423008E10113000
:100D0A003C00A10021000C1219303D009400210082
:100D1A008E1122008E1524009516F0309505941731
:100D2A001417151206302000A8002A308531D02564
:100D3A008631003A0319A22EA32EA42EBF2E01300B
:100D4A002000C3002000430C2200031C0C100318CF
:100D5A000C1420004303031DB32EB52E0130B62E0A
:100D6A000030C300E830F0000330F1008331012382
:100D7A008631A72E20005608031DC42EC52E112F1A
:100D8A002230C5000130C6004530F2004130F30080
:100D9A000230F40085311F2586316930F90084312B
:100DAA001C24863127302000C5007030C60045302B
:100DBA00F2004130F3000230F40085311F258631FC
:100DCA0020001F111F08FC3901389F009D017D304A
:100DDA009E001F1521008E112C0099131912023042
:100DEA003D00A300C0302C0097006F3098001F0808
:100DFA00FC3901389F00991721000E122C009C1310
:100E0A001C1203303D00A4002C009A019B011F080C
:100E1A00F33904389F009C1720005603031D162F30
:100E2A00172F522F2A30BB006908BC006A08BD0080
:100E3A006B08BE006C08BF006D08C0003B30F200B2
:100E4A003530F3000630F40085311F258631303005
:100E5A002000BB003B30F2003530F3000630F400CE
:100E6A0085311F258631F601F60A03308531702552
:100E7A00863123000E1621000E161D101E088F390A
:100E8A0060389E001E11FC309E051D08033950383B
:100E9A009D009E131D142000D5010130C4002000BE
:100EAA005603031D592F5A2F542FD02F21009D1856
:100EBA005F2F602FE62F1D0C890C3F39143A031D52
:100ECA00672F682F752F1C082000C70021001B08F8
:100EDA002000C80021001D08033948389D00842FCE
:100EEA001C082000C90021001B082000CA0021009C
:100EFA001D08033950389D0001302000D50021001B
:100F0A009D14542F4808F0004908F1004A08F200DD
:100F1A0047088331622386315E30F6008331252308
:100F2A00863120005E0883317F238631023020001B
:100F3A00D500542F8E1AA22FA32FE62F2730C700D1
:100F4A007030C8004730F2005E30F3000230F4001F
:100F5A0085311F2586315E30F6008331252386319F
:100F6A0020005E087039031DBB2FBC2FA72F03304A
:100F7A00D500542F440C2200031C0C1003180C1427
:100F8A0020004403031DCA2FCC2F0130CD2F00307F
:100F9A00C400D501542F5508B300B4013408003AEF
:100FAA000319D82F542F3308003A03195B2F013A3B
:100FBA000319872F033A03199F2F013A0319BF2FE9
:100FCA00542F542F80310228323084008330850018
:100FDA0060308600003087000E308231FB22873174
:100FEA004B3084000030850015308231F52287317C
:060FFA0020008631622E8A
:020000040001F9
:04000E00EC3FF33F91
:00000001FF
