:08000000803102288731E92F4D
:1005A000640080010131890BD12A0034FE00120061
:1005B0001E00FE0BD72A0034E12AFF30F007FF307F
:1005C000F13DF11FE42AE52ADD2A08002000540845
:1005D000F6007630F2007730F300F401F40A84314B
:1005E000FD248231080020005308F6007630F20026
:1005F0007730F300F401F40A8431FD2482310800DD
:1006000020005508F7007730F2007608F300F40177
:10061000F40A8431FD24833108005034733450349B
:10062000733401348034E134E234FF343034303414
:10063000303431343134F0007008031D202B212B6D
:10064000242B22008C102B2B7003031D282B292B0D
:100650002B2B22008C140800F700F801F901770811
:10066000F800FF30F9007830F2007608F30002302D
:10067000F4008431FD2483310800F6007603FF3A4C
:10068000F30070087302F4007108F4027208740237
:10069000FE3EF500A0302000E1000130E2007608C7
:1006A000E3007008E4007108E5007208E6007508D0
:1006B000E70008002000A700D101270870390319BE
:1006C000622B632B702B2730A8007030A9002830D4
:1006D000F2002A30F3000230F4008431FD2483312B
:1006E0006130F2002030F3000730F4008431FD2443
:1006F0008331013083311B2383312D30F0000030F2
:10070000F1008231DC228331003083311B238331BD
:100710000800FA30F0000030F1007808F3007708A4
:10072000F2008331BD2383317008FF3E2000A0001A
:10073000FF30713DA1000F307802A130031977021C
:10074000031CA32BA42BA82B0F30A0000030A1006A
:100750002430A2002008FB000430FB35890BAD2BB0
:100760007B087904A3002230F2007A08F3000230FB
:10077000F4008431FD2483310800F401F501700890
:1007800071040319C42BC52BF22B0130F600CF2BBB
:100790000130F035F10D890BC92B0130F607F11F3F
:1007A000D22BD32BC82B0130F435F50D890BD42B6C
:1007B00071087302031DDE2B70087202031CE12B0B
:1007C000E22BE72B7008F2027108F33B741401303E
:1007D000F136F00C890BE82B0130F602031DF12BEA
:1007E000F22BD32B7508F1007408F00008002000EC
:1007F000A2007B08F600063083312C2383317B0A6C
:100800008600870101082000A3007A08FC00FC0D87
:1008100023087C06F9397C06A3002208FC0001307D
:10082000FC36890B102C7C080139FD00FD0EFD0DF6
:1008300023087D06DF397D06A30022080139FC006C
:10084000FC0DFC0DFC0D23087C06F7397C06A3008B
:100850002630A0002308A1002030F2007B08F3001E
:100860000230F4008431FD2483310800F601F60AD9
:1008700020002208F700003085314E2584312730D2
:100880002000A3007030A4002330F2002208F300FF
:100890000230F4008431FD2484312A302000A3008A
:1008A0002008860087010108A400200A860087012D
:1008B0000108A5002008023E860087010108A60065
:1008C0002008033E860087010108A7002008043E97
:1008D000860087010108A8002330F2002208F300F7
:1008E0000630F4008431FD24843108002430F60001
:1008F0001D3083312C23843120005008A1004F0883
:10090000A0002030F2007A08F3000230F4008431B5
:10091000FD2484312630F6001D3083312C238431B0
:10092000200027080319952C962CB62C4E08A300FE
:100930004D08A20025082706031D9F2CA02CA92CDA
:100940002230F2007A08F3000230F4008431FD24F2
:1009500084311D302000A200A3012230F2007A0869
:10096000F3000230F4008431FD2484310800F700E4
:100970003130F8007708F9007830F2007608F3009B
:100980000230F4008431FD2484313230F8007830B4
:10099000F2007608F3000230F4008431FD24843143
:1009A0003330F8007830F2007608F3000230F400BB
:1009B0008431FD2484313430F8007830F200760838
:1009C000F3000230F4008431FD2484313530F80026
:1009D0007830F2007608F3000230F4008431FD2410
:1009E00084313630F8007830F2007608F3000230B7
:1009F000F4008431FD24843108007403031D012DAB
:100A0000022D162D22008E11720886008701010822
:100A100024009100141C0D2D0E2D0A2D7308860044
:100A200087011108810022008E15462D22008E11AB
:100A3000F5013E2D1108240014181F2D202D1A2D0C
:100A4000720875078600870101089100141C292D82
:100A50002A2D262D951F2D2D2E2D362D95137308FD
:100A6000750786008701FF3081003C2D73087507EC
:100A700086008701110881000130F50774087502AE
:100A8000031C432D442D1B2D22008E152D30F0000C
:100A90000030F1008231DC2284310800FA002000AD
:100AA0005E08FD00FD15760801397D11031D7D15D9
:100AB0007D13FD127D127F2DFD147D1401308331D5
:100AC0001B238531982DFD147D10013083311B23AC
:100AD0008531982DFD147D10013083311B23853124
:100AE000982DFD147D10003083311B238531982D06
:100AF000FD107D10003083311B238531982D7A083D
:100B0000F800F9017908003A0319872D982D780823
:100B1000003A03195C2D013A0319632D033A0319B6
:100B20006A2D013A0319712D073A0319782D982D72
:100B30002030FB007D08FC007B30F2007708F300DA
:100B40000230F4008431FD2485311030F00027306C
:100B5000F1008231DC22853108002000AA00AB01BF
:100B6000DC30F7000530F8000F30F9002908FA00F2
:100B7000833189238531FA0120002908FB000030E8
:100B80008331F723853120002908FA008431762447
:100B900085313C302000AC00AD012C30F20029083A
:100BA000F3000230F4008431FD248531213020002F
:100BB000AC003F30AD002C30F2002908F3000230C9
:100BC000F4008431FD24853122302000AC00033054
:100BD000AD002C30F2002908F3000230F40084311B
:100BE000FD24853120002908F60028088431B72427
:100BF000853123302000AC000330AD002C30F200F2
:100C00002908F3000230F4008431FD2485312530B9
:100C10002000AC002A087F39AD002C30F2002908F2
:100C2000F3000230F4008431FD24853127302000A8
:100C3000AC007030AD002C30F2002908F300023017
:100C4000F4008431FD2485318231E6228531823100
:100C5000F3228531F601F60A20002908F700043056
:100C600085314E25853120002908F600003083317A
:100C70002C2385312000290A8600870101080C39C0
:100C80000319432E442E462E0130AB002B080800DA
:100C900021000C1022000C1021008C100030833138
:100CA0001B23863121008C1623008C1220008C1E01
:100CB0005A2E5B2E5D2E0130E00021008E1623009F
:100CC0008E1221000E1018303D00A00021008E145D
:100CD00023008E1011303C00A10021000C121930AD
:100CE0003D00940021008E1122008E1524009516DF
:100CF000F030950594171417151206302000A8003F
:100D00004B30A9002A308531AD258631003A0319D0
:100D10008A2E8B2E8C2EA72E01302000C2002000A0
:100D2000420C2200031C0C1003180C142000420378
:100D3000031D9B2E9D2E01309E2E0030C200E830F8
:100D4000F0000330F1008231DC2286318F2E20004A
:100D50004B08DF006008031DAE2EAF2E062F223099
:100D6000C3000130C4004330F2004930F3000230C8
:100D7000F4008431FD24863120004908DF0056301C
:100D8000A0000530A1004930A2008431362486310C
:100D900020004908DF002730C3007030C400433012
:100DA000F2004930F3000230F4008431FD24863132
:100DB00020004908DF001F111F08FC3901389F007F
:100DC0009D017D309E001F1521008E112C0099136E
:100DD000191202303D00A300C0302C0097006F3084
:100DE00098001F08FC3901389F00991721000E1246
:100DF0002C009C131C1203303D00A4002C009A010F
:100E00009B011F08F33904389F009C1720006003E2
:100E1000031D0B2F0C2F4D2F2A30BA005608BB0094
:100E20005708BC005808BD005908BE005A08BF004A
:100E30003A30F2003430F3000630F4008431FD24FF
:100E4000863130302000BA003A30F2003430F300FE
:100E50000630F4008431FD24863120003408DF00A0
:100E6000F601F60A3430F700033085314E2586311D
:100E700020003408DF0023000E1621000E161D107E
:100E80001E088F3960389E001E11FC309E051D081B
:100E9000033950389D009E131D142000C10120000D
:100EA0006003031D542F552F4F2FD02F21009D1865
:100EB0005A2F5B2FE62F1D0C890C3F39143A031D66
:100EC000622F632F702F1C082000C50021001B0813
:100ED0002000C60021001D08033948389D007F2FDF
:100EE0001C082000C70021001B082000C8002100AA
:100EF0001D08033950389D0001302000C100210039
:100F00009D144F2F4608F0004708F1004808F200F2
:100F1000450883313D2386314B30F6008331002371
:100F2000863120004B08DF005F0883315A23863169
:100F300002302000C1004F2F8E1A9F2FA02FE62FC6
:100F40002730C5007030C6004530F2004B30F3004A
:100F50000230F4008431FD2486314B30F6008331B9
:100F60000023863120004B087039C0004008031D63
:100F7000BA2FBB2FA42F0330C1004F2F8E1AC12FC1
:100F8000C22FE62F2730C5007030C6004530F20072
:100F90004B30F3000230F4008431FD2486314F2FB2
:100FA0004108B200B3013308003A0319D82F4F2F7C
:100FB0003208003A0319562F013A0319822F033AD7
:100FC00003199C2F013A0319BE2F4F2F4F2F803149
:100FD00002280D308400833085004D3086000030BB
:100FE00087000E308231D62287315B30840000309A
:100FF00085000D308231D022873120008631482E85
:020000040001F9
:04000E00EC3FF33F91
:00000001FF
