:08000000803102288731E12F55
:10006A00640080010131890B36280034FE00120039
:10007A001E00FE0B3C2800344628FF30F007FF30F4
:10008A00F13DF11F49284A28422808002000620849
:10009A00F6007630F2007730F300F401F40A833187
:1000AA0023238031080020006108F6007630F20030
:1000BA007730F300F401F40A8331232380310800F6
:1000CA0020006308F7007730F2007608F300F401A5
:1000DA00F40A8331232380310800503473345034B6
:1000EA007334E134E234FF340134013430343034CF
:1000FA00303431343134F700F801F9017708F80067
:10010A00FF30F9007830F2007608F3000230F4008C
:10011A008331232380310800F401F501701C9628ED
:10012A0097289B287208F4077308F53D0130F235C9
:10013A00F30D890B9C280130F136F00C890BA128AC
:10014A0070087104031DAA28AB2893287508F100CA
:10015A007408F0000800F1007103031DB528B628E1
:10016A00C6287008031DBA28BB28BE2822000C1115
:10017A00DA287003031DC228C328DA2822000C15C6
:10018A00DA287108031DCA28CB28DA287008031D4B
:10019A00CF28D028D32822008E12DA287003031D14
:1001AA00D728D828DA2822008E160800F000210065
:1001BA000E1018303D00A00021008E1423008E106E
:1001CA0011303C00A1007003031DEC28ED28F32830
:1001DA0021008E1219303D00A500FD287008031D6C
:1001EA00F728F828FD2821000C1119303D0092004B
:1001FA0021000C1222000C1624009516F0309505E9
:10020A0094171417151208002000AB002B08703938
:10021A000319102911291E292730AC007030AD00AE
:10022A002C30F2002930F3000230F400833123230A
:10023A008131A030F2002030F3000930F40083311C
:10024A0023238131F001F00A01308031B02081315D
:10025A002D30F0000030F100803141208131F00171
:10026A0001308031B02081310800F3007309F200B7
:10027A00F40170087407860087010108F202013050
:10028A00F40706307402031C4B294C293E29A0307E
:10029A002100A0007308A1000230F5007508A03EF5
:1002AA008600870175087007F1007108FE3E840018
:1002BA008501000881000130F50708307502031C2A
:1002CA0067296829532972082100A8000800FA3012
:1002DA00F6000030F70020002108F9002008F80095
:1002EA008131A12181317608FF3E2000A400FF3030
:1002FA00773DA5000F302102A13003192002031C0B
:10030A00872988298C290F30A4000030A5002430C1
:10031A00A6002408FD000430FD35890B91297D08CB
:10032A002204A7002630F2002308F3000230F4006A
:10033A008331232381310800FA01FB01760877040F
:10034A000319A829A929D6290130FC00B3290130AB
:10035A00F635F70D890BAD290130FC07F71FB629D1
:10036A00B729AC290130FA35FB0D890BB829770872
:10037A007902031DC22976087802031CC529C629F9
:10038A00CB297608F8027708F93B7A140130F73658
:10039A00F60C890BCC290130FC02031DD529D6297C
:1003AA00B7297B08F7007A08F6000800F601F60A72
:1003BA00F701003084317924813127302000A900E7
:1003CA007030AA002930F2002730F3000230F4001E
:1003DA008331232381312A302000A9002608860090
:1003EA0087010108AA00260A860087010108AB00D6
:1003FA002608023E860087010108AC002608033E53
:10040A00860087010108AD002608043E86008701A0
:10041A000108AE002930F2002730F3000630F4005C
:10042A0083312323813108002000A2007B08F600D3
:10043A0006308031802082317B0A860087010108DC
:10044A002000A3007A08FC00FC0D23087C06F93979
:10045A007C06A3002208FC000130FC36890B322AF4
:10046A007C080139FD00FD0EFD0D23087D06DF39EC
:10047A007D06A30022080139FC00FC0DFC0DFC0DD1
:10048A0023087C06F7397C06A3002630A00023083F
:10049A00A1002030F2007B08F3000230F40083311F
:1004AA002323823108002430F6001D308031802059
:1004BA00823120006008A1005F08A0002030F2000D
:1004CA007A08F3000230F400833123238231263084
:1004DA00F6001D3080318020823120002708031960
:1004EA00772A782A982A5E08A3005D08A2002508C0
:1004FA002706031D812A822A8B2A2230F2007A08D3
:10050A00F3000230F4008331232382311D302000AE
:10051A00A200A3012230F2007A08F3000230F400AC
:10052A0083312323823108002000A9016130A00011
:10053A000130AB000030AC0020002B08203E8600C2
:10054A008701FF3081000130AB070030AC3D2C0839
:10055A00803AF70080307702031DB52A09302B0252
:10056A00031CB82AB92AA12A2030F2007608F3001F
:10057A000930F4008331232382312000AA0101309B
:10058A00AD0076082D07860087010108AA07013009
:10059A00AD0709302D02031CD32AD42AC62A2A0AF7
:1005AA00031DD82AD92ADB2A0130A9002908080004
:1005BA00F7003130F8007708F9007830F200760851
:1005CA00F3000230F4008331232382313230F80001
:1005DA007830F2007608F3000230F40083312323E6
:1005EA0082313330F8007830F2007608F3000230B6
:1005FA00F4008331232382313430F8007830F2005A
:10060A007608F3000230F400833123238231353037
:10061A00F8007830F2007608F3000230F4008331F3
:10062A00232382313630F8007830F2007608F3005E
:10063A000230F40083312323823108007403031D3E
:10064A00272B282B3C2B22000C12720886008701CC
:10065A00010824009100141C332B342B302B73080F
:10066A00860087011108810022000C166C2B2200DB
:10067A000C12F501642B110824001418452B462B83
:10068A00402B720875078600870101089100141C27
:10069A004F2B502B4C2B951F532B542B5C2B951304
:1006AA007308750786008701FF308100622B730883
:1006BA00750786008701110881000130F507740863
:1006CA007502031C692B6A2B412B22000C162D3054
:1006DA00F0000030F10080314120833108001430ED
:1006EA00F600F501F7017008770786008701770899
:1006FA00433E840085010008F100F2017208F4000B
:10070A0001087102F300031CF4037408803A803C68
:10071A00031D912B73087602031C942B952BB22B85
:10072A007708433E860087017008770784008501B1
:10073A000008F100F2017208F40001087102F300E6
:10074A00031CF4037408803A803C031DAE2B730823
:10075A0076020318B12BB22BBE2B0130F5007708B5
:10076A00433E8600870170087707840085010008E8
:10077A0081000130F70706307702031CC52BC62B10
:10078A00782B750808002A302000AD00260886005C
:10079A0087010108AE00260A860087010108AF001A
:1007AA002608023E860087010108B0002608033E9B
:1007BA00860087010108B1002608043E86008701E9
:1007CA000108B2002D30F2002730F3000630F400A1
:1007DA0083312323833130302000AD002D30F200E5
:1007EA002730F3000630F400833123238331F601E6
:1007FA00F60AF701F70A033084317924833121009C
:10080A000E1623000E1621008E1523008E152100C8
:10081A008C1423008C1421001D101E088F39603897
:10082A009E001E11FC309E051D08033950389D009C
:10083A009E171D1408002230FC000130FD007C3098
:10084A00F2007A30F3000230F4008331232384313A
:10085A0020002F08A6008131DB2184312730FC00DB
:10086A007030FD007C30F2007A30F3000230F40080
:10087A0083312323843120001F111F08FC390138DA
:10088A009F009D017D309E001F152800171103301F
:10089A00970495014D309600171521000E1222007B
:1008AA000E1221000E112C009913191202303D006C
:1008BA00A2002C00970198011F08FC3901389F00FB
:1008CA00991721008E112C009C131C1203303D0035
:1008DA00A300C0302C009A0007309B001F08F33990
:1008EA0008389F009C1708002000A2004B08A500AA
:1008FA00A515760801392511031D25152513A512FD
:10090A002512B22CA5142514F001F00A77088031BB
:10091A00B0208431CB2CA5142510F001F00A7708F9
:10092A008031B0208431CB2CA5142510F001F00AB7
:10093A0077088031B0208431CB2CA5142510F00122
:10094A0077088031B0208431CB2CA5102510F00116
:10095A0077088031B0208431CB2C2208F800F901C5
:10096A007908003A0319BA2CCB2C7808003A0319F3
:10097A00872C013A0319902C033A0319992C013A4E
:10098A000319A22C073A0319AA2CCB2C20302000D9
:10099A00A3002508A4002330F2002030F30002301F
:1009AA00F4008331232384311030F0002730F10022
:1009BA0080314120843108002000AA00AB01DC30DC
:1009CA00A0000530A1000F30A2002C30A300813115
:1009DA006C218431FA012C30FB000030823119225B
:1009EA0084312C30FA008231582284313C30200084
:1009FA00AE00AF012E30F2002C30F3000230F400CA
:100A0A0083312323843121302000AE003F30AF00F0
:100A1A002E30F2002C30F3000230F400833123230D
:100A2A00843122302000AE000330AF002E30F200B5
:100A3A002C30F3000230F4008331232384312C302C
:100A4A00F600200028088231DD228431233020007C
:100A5A00AE000330AF002E30F2002C30F30002302B
:100A6A00F40083312323843125302000AE002A0884
:100A7A007F39AF002E30F2002C30F3000230F40040
:100A8A0083312323843127302000AE007030AF0039
:100A9A002E30F2002C30F3000230F400833123238D
:100AAA00843180314B208431803158208431F601E1
:100ABA00F60A20002908F7000430843179248431A9
:100ACA002C30F600003080318020843120002D083F
:100ADA000C390319712D722D742D0130AB002B08BE
:100AEA00080021000C1022000C1021008C16230093
:100AFA008C1220008C1E822D832D852D0130CE0074
:100B0A004E03031D892D8A2DA72DBD01E830F00063
:100B1A000330F10080314120853122000C14E83085
:100B2A00F0000330F10080314120853122000C10A1
:100B3A0001302000BD070A303D02031CA52DA62D59
:100B4A008B2DC82D4E08031DAB2DAC2DC82DBE0113
:100B5A001030F0002730F100803141208531220029
:100B6A000C141030F0002730F1008031412085311B
:100B7A0022000C1001302000BE0703303E02031C85
:100B8A00C72DC82DAD2D4E03031DCC2DCD2DD02D37
:100B9A0021000C11D72D4E08031DD42DD52DD72D8C
:100BAA0021008E12F00120004E088031B0208531DC
:100BBA0020004E03031DE22DE32DE82D21000E1522
:100BCA0023000E11F12D4E08031DEC2DED2DF12DF4
:100BDA0021008C1423008C1020004E088031DB2069
:100BEA00853108302000A8004E08A9002A30843137
:100BFA00E1248531003A0319032E042E052E1D2EF9
:100C0A002000650C2200031C0C1003180C14200091
:100C1A006503031D112E132E0130142E0030E5003A
:100C2A001030F0002730F100803141208531052E47
:100C3A0020004E08031D222E232E2C2E6630AF00D4
:100C4A0084312024853103302000CD00C22F4E0389
:100C5A00031D302E312E3B2E6630A6008331C82369
:100C6A0085312000CD0121009D14C22FC22F210001
:100C7A009D18402E412EC22F1D0C890C3F39143A63
:100C8A00031D482E492E562E1C082000D60021008E
:100C9A001B082000D70021001D0803394C389D008D
:100CAA00932E1D0C890C3F39133A031D5D2E5E2EBF
:100CBA006B2E1C082000D80021001B082000D90038
:100CCA0021001D08033904389D00932E1D0C890C40
:100CDA003F39013A031D722E732E932E1C082000F1
:100CEA00DA0021001B082000DB0021001D0803395F
:100CFA0050389D005630F000833174238531003A14
:100D0A000319882E892E932E5630F0000130813136
:100D1A003A21853101302000CD00932E21009D1407
:100D2A00C22F4F30F60080316520853120004F08F0
:100D3A0081310921853102302000CD00C22F0E19E0
:100D4A00A72EA82EC22F22000C14E830F000033080
:100D5A00F10080314120853122000C10E830F0008A
:100D6A000330F1008031412085314F30F600803167
:100D7A006520853127302000D6007030D7005630E4
:100D8A00F2004F30F3000230F4008331232385311F
:100D9A004F30F60080316520853120004F087039C8
:100DAA00031DD82ED92EC42E0530CD00C22FCD0159
:100DBA0021009D14C22F8C18E32EE42EC22F22008C
:100DCA000C14E830F0000330F10080314120853105
:100DDA0022000C10E830F0000330F100803141208D
:100DEA0085314F30F60080316520853120004F1F54
:100DFA00FF2E002F022F0430CD002730D60070308E
:100E0A00D7005630F2004F30F3000230F40083313D
:100E1A0023238531C22F4F30F60082319922853142
:100E2A002000BC003C0803191B2F1C2F282E50033E
:100E3A00031D202F212F282E5208B700B801510870
:100E4A00B900BA013908BA00B90137083904C10032
:100E5A0038083A04C2005408B700B8015308B90068
:100E6A00BA013908BA00B90137083904BF0038088D
:100E7A003A04C000FF30F6000330F7004008F100E2
:100E8A003F08F0000F30F2000030F300803191206B
:100E9A0085317008F13EF8003B30713DF90081312F
:100EAA00A121853177082000C0007608BF000230F2
:100EBA004202013003194102031C642F652F6C2F73
:100ECA000030C1020230C23B0130CC00772F003023
:100EDA00B7000230B80041083702C1004208383B67
:100EEA00C200CC012C009913200064084C06031997
:100EFA007F2F802F952F4C080319842F852F8C2F35
:100F0A0002303D00A200A40122000E12922F3D00E1
:100F1A00A2010230A40022000E1120004C08E400B5
:100F2A004108B7000630B735890B982F37082C00CF
:100F3A00970020004208B8004108B700B836B70C3D
:100F4A00B836B70C37082C00980020003F08B700C5
:100F5A000630B735890BAE2F37082C009A002000CF
:100F6A004008B8003F08B700B836B70CB836B70C17
:100F7A0037082C009B009917282E20004D08B7002F
:100F8A00B8013808003A0319CB2FC22F3708003AA4
:100F9A0003193C2E013A0319962E033A0319A42E7B
:100FAA00013A0319E02E073A0319102F013A0319DF
:100FBA00DC2EC22F803102287230840080308500F6
:100FCA005D308600003087000E3080313B2087314B
:100FDA0043308400003085001A3080313520873153
:100FEA00A0308400003085000930803135208731F7
:060FFA0020008531762D78
:020000040001F9
:04000E00EC3FF33F91
:00000001FF
