:08000000803102288731E12F55
:10008800640080010131890B45280034FE0012000C
:100098001E00FE0B4B2800345528FF30F007FF30B8
:1000A800F13DF11F582859285128080020006508FB
:1000B800F6007630F2007730F300F401F40A833169
:1000C80035238031080020006408F6007630F200FD
:1000D8007730F300F401F40A8331352380310800C6
:1000E80020006608F7007730F2007608F300F40184
:1000F800F40A833135238031080050347334503486
:10010800733401348034E134E234FF34013401348F
:1001180030343034303431343134F700F801F901F7
:100128007708F800FF30F9007830F2007608F3001D
:100138000230F4008331352380310800F401F501E1
:10014800701CA728A828AC287208F4077308F53D86
:100158000130F235F30D890BAD280130F136F00C82
:10016800890BB22870087104031DBB28BC28A42879
:100178007508F1007408F0000800F1007103031D10
:10018800C628C728D7287008031DCB28CC28CF2815
:1001980022000C11EB287003031DD328D428EB2868
:1001A80022000C15EB287108031DDB28DC28EB283E
:1001B8007008031DE028E128E42822008E12EB28AD
:1001C8007003031DE828E928EB2822008E16080092
:1001D800F00021000E1018303D00A00021008E1400
:1001E80023008E1011303C00A1007003031DFD2870
:1001F800FE28042921008E1219303D00A5000E2981
:100208007008031D082909290E2921000C1119302D
:100218003D00920021000C1222000C1624009516B5
:10022800F03095059417141715120800F300730998
:10023800F200F40170087407860087010108F202D1
:100248000130F40706307402031C2B292C291E29BF
:10025800A0302100A0007308A1000230F500750845
:10026800A03E8600870175087007F1007108FE3E00
:1002780084008501000881000130F5070830750207
:10028800031C47294829332972082100A8000800BF
:100298002000AB00E2012B087039031954295529B5
:1002A80062292730AC007030AD002C30F2002930C4
:1002B800F3000230F400833135238131A030F2009D
:1002C8002030F3000930F400833135238131F00107
:1002D800F00A01308031C12081312D30F00000302A
:1002E800F100803150208131F00101308031C1208E
:1002F80081310800FA30F6000030F70020002108AC
:10030800F9002008F8008131B32181317608FF3ED9
:100318002000A400FF30773DA5000F302102A13056
:1003280003192002031C99299A299E290F30A40039
:100338000030A5002430A6002408FD000430FD3557
:10034800890BA3297D082204A7002630F200230880
:10035800F3000230F4008331352381310800FA01BB
:10036800FB01760877040319BA29BB29E82901306B
:10037800FC00C5290130F635F70D890BBF2901307E
:10038800FC07F71FC829C929BE290130FA35FB0D1A
:10039800890BCA2977087902031DD42976087802BF
:1003A800031CD729D829DD297608F8027708F93BF4
:1003B8007A140130F736F60C890BDE290130FC027D
:1003C800031DE729E829C9297B08F7007A08F60000
:1003D8000800F601F60AF701003084318B248131D8
:1003E80027302000A9007030AA002930F2002730F9
:1003F800F3000230F4008331352381312A302000A4
:10040800A9002608860087010108AA00260A860096
:1004180087010108AB002608023E86008701010813
:10042800AC002608033E860087010108AD002608B7
:10043800043E860087010108AE002930F20027300B
:10044800F3000630F40083313523813108002000A1
:10045800A2007B08F60006308031912082317B0AA9
:100468008600870101082000A3007A08FC00FC0D23
:1004780023087C06F9397C06A3002208FC00013019
:10048800FC36890B442A7C080139FD00FD0EFD0D60
:1004980023087D06DF397D06A30022080139FC0008
:1004A800FC0DFC0DFC0D23087C06F7397C06A30027
:1004B8002630A0002308A1002030F2007B08F300BA
:1004C8000230F40083313523823108002430F600ED
:1004D8001D3080319120823120006108A100600820
:1004E800A0002030F2007A08F3000230F4008331D3
:1004F800352382312630F6001D308031912082313B
:10050800200027080319892A8A2AAA2A5F08A30033
:100518005E08A20025082706031D932A942A9D2A0F
:100528002230F2007A08F3000230F40083313523D8
:1005380082311D302000A200A3012230F2007A0887
:10054800F3000230F40083313523823108002000A3
:10055800A9016130A0000130AB000030AC002000E0
:100568002B08203E86008701FF3081000130AB0751
:100578000030AC3D2C08803AF70080307702031D2C
:10058800C72A09302B02031CCA2ACB2AB32A2030D7
:10059800F2007608F3000930F40083313523823104
:1005A8002000AA010130AD0076082D0786008701DA
:1005B8000108AA070130AD0709302D02031CE52AFE
:1005C800E62AD82A2A0A031DEA2AEB2AED2A01304C
:1005D800A90029080800F7003130F8007708F90069
:1005E8007830F2007608F3000230F40083313523C6
:1005F80082313230F8007830F2007608F3000230A9
:10060800F4008331352382313330F8007830F2003A
:100618007608F3000230F400833135238231343018
:10062800F8007830F2007608F3000230F4008331E5
:10063800352382313530F8007830F2007608F3003F
:100648000230F4008331352382313630F8007830B7
:10065800F2007608F3000230F4008331352382314A
:1006680008007403031D392B3A2B4E2B22000C1261
:10067800720886008701010824009100141C452B8C
:10068800462B422B7308860087011108810022003F
:100698000C167E2B22000C12F501762B1108240073
:1006A8001418572B582B522B720875078600870190
:1006B80001089100141C612B622B5E2B951F652B82
:1006C800662B6E2B95137308750786008701FF301C
:1006D8008100742B73087507860087011108810053
:1006E8000130F50774087502031C7B2B7C2B532BF8
:1006F80022000C162D30F0000030F100803150201F
:10070800833108001430F600F501F7017008770707
:10071800860087017708433E840085010008F100C0
:10072800F2017208F40001087102F300031CF403DB
:100738007408803A803C031DA32B73087602031CBF
:10074800A62BA72BC42B7708433E86008701700889
:100758007707840085010008F100F2017208F400AF
:1007680001087102F300031CF4037408803A803C0A
:10077800031DC02B730876020318C32BC42BD02B80
:100788000130F5007708433E860087017008770737
:1007980084008501000881000130F70706307702E0
:1007A800031CD72BD82B8A2B750808002A30200069
:1007B800AD002608860087010108AE00260A8600DB
:1007C80087010108AF002608023E8600870101085C
:1007D800B0002608033E860087010108B1002608FC
:1007E800043E860087010108B2002D30F200273050
:1007F800F3000630F4008331352383313030200094
:10080800AD002D30F2002730F3000630F4008331BC
:1008180035238331F601F60AF701F70A03308431EC
:100828008B24833121000E1623000E1621008E150D
:1008380023008E1521008C1423008C1421001D1018
:100848001E088F3960389E001E11FC309E051D0859
:10085800033950389D009E171D1408002230FC00F3
:100868000130FD007C30F2007A30F3000230F400F1
:1008780083313523843120002F08A6008131ED21F2
:1008880084312730FC007030FD007C30F2007A3073
:10089800F3000230F40083313523843120001F1126
:1008A8001F08FC3901389F009D017D309E001F15EF
:1008B800280017110330970495014D30960017153D
:1008C80021000E1222000E1221000E112C00991385
:1008D800191202303D00A2002C00970198011F0850
:1008E800FC3901389F00991721008E112C009C13A8
:1008F8001C1203303D00A300C0302C009A000730C2
:100908009B001F08F33908389F009C170800200037
:10091800A2004C08A500A515760801392511031D6C
:1009280025152513A5122512C42CA5142514F0018C
:10093800F00A77088031C1208431DD2CA5142510F8
:10094800F001F00A77088031C1208431DD2CA5142C
:100958002510F001F00A77088031C1208431DD2CA0
:10096800A5142510F00177088031C1208431DD2CD1
:10097800A5102510F00177088031C1208431DD2CC5
:100988002208F800F9017908003A0319CC2CDD2C6B
:100998007808003A0319992C013A0319A22C033A52
:1009A8000319AB2C013A0319B42C073A0319BC2CD0
:1009B800DD2C20302000A3002508A4002330F200FD
:1009C8002030F3000230F4008331352384311030B5
:1009D800F0002730F10080315020843108002000D9
:1009E800AA00AB01DC30A0000530A1000F30A20046
:1009F8002C30A30081317E218431FA012C30FB0098
:100A0800003082312B2284312C30FA0082316A2264
:100A180084313C302000AE00AF012E30F2002C3083
:100A2800F3000230F4008331352384312130200073
:100A3800AE003F30AF002E30F2002C30F300023011
:100A4800F40083313523843122302000AE00033096
:100A5800AF002E30F2002C30F3000230F400833166
:100A6800352384312C30F600200028088231EF220B
:100A7800843123302000AE000330AF002E30F20066
:100A88002C30F3000230F4008331352384312530D3
:100A98002000AE002A087F39AF002E30F2002C303B
:100AA800F3000230F40083313523843127302000ED
:100AB800AE007030AF002E30F2002C30F300023060
:100AC800F40083313523843180315A2084318031D8
:100AD80067208431F601F60A20002908F70004305F
:100AE80084318B2484312C30F60000308031912001
:100AF800843120002D080C390319832D842D862D6F
:100B08000130AB002B08080021000C1022000C104B
:100B180021008C1623008C1220008C1E942D952DFC
:100B2800972D0130CF004F03031D9B2D9C2DB92D10
:100B3800BD01E830F0000330F100803150208531EC
:100B480022000C14E830F0000330F100803150200E
:100B5800853122000C1001302000BD070A303D020B
:100B6800031CB72DB82D9D2DDA2D4F08031DBD2D63
:100B7800BE2DDA2DBE011030F0002730F100803193
:100B88005020853122000C141030F0002730F1007D
:100B980080315020853122000C1001302000BE0722
:100BA80003303E02031CD92DDA2DBF2D4F03031D40
:100BB800DE2DDF2DE22D21000C11E92D4F08031D3C
:100BC800E62DE72DE92D21008E12F00120004F08B7
:100BD8008031C120853120004F03031DF42DF52DF0
:100BE800FA2D21000E1523000E11032E4F08031DA8
:100BF800FE2DFF2D032E21008C1423008C102000C5
:100C08004F088031EC20853108302000A8004F08BB
:100C1800A9002A308431F3248531003A0319152EAE
:100C2800162E172E2F2E2000680C2200031C0C10E5
:100C380003180C1420006803031D232E252E0130F1
:100C4800262E0030E8001030F0002730F100803107
:100C580050208531172E20004F08031D342E352EC5
:100C68003E2E6930AF0084313224853103302000B4
:100C7800CE00C22F4F03031D422E432E4D2E693046
:100C8800A6008331DA2385312000CE0121009D148E
:100C9800C22FC22F21009D18522E532EC22F1D0C79
:100CA800890C3F39143A031D5A2E5B2E682E1C08F6
:100CB8002000D70021001B082000D80021001D08B3
:100CC80003394C389D00A52E1D0C890C3F39133A69
:100CD800031D6F2E702E7D2E1C082000D9002100C8
:100CE8001B082000DA0021001D08033904389D0084
:100CF800A52E1D0C890C3F39013A031D842E852E23
:100D0800A52E1C082000DB0021001B082000DC00A9
:100D180021001D08033950389D005730F0008331F9
:100D280086238531003A03199A2E9B2EA52E57301B
:100D3800F000013081311A21853101302000CE00C8
:100D4800A52E21009D14C22F5030F600803174204A
:100D580085312000500881314C2185310230200036
:100D6800CE00C22F0E19B92EBA2EC22F22000C1493
:100D7800E830F0000330F100803150208531220046
:100D88000C10E830F0000330F1008031502085313C
:100D98005030F60080317420853127302000D7008C
:100DA8007030D8005730F2005030F3000230F400B1
:100DB8008331352385315030F600803174208531F8
:100DC800200050087039031DEA2EEB2ED62E053070
:100DD800CE00C22FCE0121009D14C22F8C18F52EF3
:100DE800F62EC22F5030F600803174208531200055
:100DF800501FFF2E002F022F0430CE002730D700BF
:100E08007030D8005730F2005030F3000230F40050
:100E1800833135238531C22F5030F6008231AB2221
:100E280085312000BC003C0803191B2F1C2F3A2ECB
:100E38005103031D202F212F3A2E5308B700B80164
:100E48005208B900BA013908BA00B901370839049B
:100E5800C10038083A04C2005508B700B801540860
:100E6800B900BA013908BA00B90137083904BF0016
:100E780038083A04C000FF30F6000330F700400895
:100E8800F1003F08F0000F30F2000030F30080312D
:100E9800A22085317008F13EF8003B30713DF90021
:100EA8008131B321853177082000C0007608BF0062
:100EB80002304202013003194102031C642F652FDE
:100EC8006C2F0030C1020230C23B0130CD00772FB9
:100ED8000030B7000230B80041083702C1004208AC
:100EE800383BC200CD012C009913200067084D063D
:100EF80003197F2F802F952F4D080319842F852FD5
:100F08008C2F02303D00A200A40122000E12922F65
:100F18003D00A2010230A40022000E1120004D085D
:100F2800E7004108B7000630B735890B982F370816
:100F38002C00970020004208B8004108B700B836D6
:100F4800B70CB836B70C37082C00980020003F08BB
:100F5800B7000630B735890BAE2F37082C009A003A
:100F680020004008B8003F08B700B836B70CB836BC
:100F7800B70C37082C009B0099173A2E20004E0812
:100F8800B700B8013808003A0319CB2FC22F370829
:100F9800003A03194E2E013A0319A82E033A0319F1
:100FA800B62E013A0319F22E073A0319102F013A07
:100FB8000319EE2EC22F8031022881308400803040
:100FC80085005E30860000308700103080314A206E
:100FD800873143308400003085001B308031442045
:100FE8008731A030840000308500093080314420EA
:080FF800873120008531882DAE
:020000040001F9
:04000E00EC3FF33F91
:00000001FF
