:08000000803102288731E92F4D
:1003B800640080010131890BDD290034FE00120040
:1003C8001E00FE0BE3290034ED29FF30F007FF3053
:1003D800F13DF11FF029F129E929080020006308FF
:1003E800F6007630F2007730F300F401F40A843135
:1003F80094248131080020006208F6007630F2006B
:100408007730F300F401F40A843194248131080030
:1004180020006408F7007730F2007608F300F40152
:10042800F40A8431942482310800F0007008031D16
:100438001E2A1F2A222A22008C10292A7003031D33
:10044800262A272A292A22008C140800F700F801F6
:10045800F9017708F800FF30F9007830F2007608E3
:10046800F3000230F40084319424823108005034BF
:100478007334503473342734703401348034E134A5
:10048800E234FF34013430343034303431343134F0
:1004980021000E1018303D00A00021008E1423000A
:1004A8008E1011303C00A10021000C1219303D00C3
:1004B800940021008E1122008E1524009516F0302C
:1004C80095059417141715120800F401F501701C0E
:1004D8006E2A6F2A732A7208F4077308F53D0130F3
:1004E800F235F30D890B742A0130F136F00C890BC3
:1004F800792A70087104031D822A832A6B2A7508D9
:10050800F1007408F0000800F7007703FF3AF400E0
:100518007008F40271087402F5007208F502730895
:100528007502FF3EF600A0302000A8007708A90059
:100538007008AA007108AB007208AC007308AD001F
:100548007608AE0008002000C600E00146087039B1
:100558000319AF2AB02ABD2A2730C7007030C80057
:100568004730F2004430F3000230F4008431942420
:1005780082312830F2003D30F3000730F400843136
:100588009424823101308231192282312D30F000D9
:100598000030F1008131E8218231003082311922A6
:1005A80082310800FA30F0000030F1007808F300DA
:1005B8007708F20083310A2382317008FF3E200059
:1005C800BD00FF30713DBE000F307802A130031925
:1005D8007702031CF02AF12AF52A0F30BD000030FB
:1005E800BE002430BF003D08FB000430FB35890BFA
:1005F800FA2A7B087904C0003F30F2007A08F30039
:100608000230F4008431942482310800F401F501A9
:10061800700871040319112B122B3F2B0130F600BF
:100628001C2B0130F035F10D890B162B0130F60724
:10063800F11F1F2B202B152B0130F435F50D890BDD
:10064800212B71087302031D2B2B70087202031CE7
:100658002E2B2F2B342B7008F2027108F33B7414E5
:100668000130F136F00C890B352B0130F602031DF1
:100678003E2B3F2B202B7508F1007408F000080072
:10068800F601F60A003085318F25833127302000A6
:10069800C5007030C6004530F2004330F300023028
:1006A800F4008431942483312A302000C50079086D
:1006B800860087010108C600790A860087010108BB
:1006C800C7007908023E860087010108C80079083A
:1006D800033E860087010108C9007908043E8600A8
:1006E80087010108CA004530F2004330F3000630A4
:1006F800F40084319424833108002000BF007B0873
:10070800F600063082312A2283317B0A860087016F
:1007180001082000C0007A08FC00FC0D40087C0697
:10072800F9397C06C0003F08FC000130FC36890B13
:100738009A2B7C080139FD00FD0EFD0D40087D0651
:10074800DF397D06C0003F080139FC00FC0DFC0DB7
:10075800FC0D40087C06F7397C06C0002630BD0039
:100768004008BE003D30F2007B08F3000230F40080
:1007780084319424833108004130F6001D308231E1
:100788002A22833120005D08BE005C08BD003D3090
:10079800F2007A08F3000230F400843194248331A3
:1007A8004330F6001D3082312A228331200044086C
:1007B8000319DF2BE02B002C5B08C0005A08BF0090
:1007C80042084406031DE92BEA2BF32B3F30F200C5
:1007D8007A08F3000230F4008431942483311D3008
:1007E8002000BF00C0013F30F2007A08F300023059
:1007F800F4008431942483310800F7003130F80084
:100808007708F9007830F2007608F3000230F40037
:100818008431942484313230F8007830F20076083C
:10082800F3000230F4008431942484313330F8002A
:100838007830F2007608F3000230F4008431942412
:1008480084313430F8007830F2007608F300023052
:10085800F4008431942484313530F8007830F20083
:100868007608F3000230F400843194248431363061
:10087800F8007830F2007608F3000230F400843192
:100888009424843108002A302000C90079088600A1
:1008980087010108CA00790A860087010108CB0090
:1008A8007908023E860087010108CC007908033EDA
:1008B800860087010108CD007908043E860087017B
:1008C8000108CE004930F2004330F3000630F4004E
:1008D80084319424843130302000C9004930F2003A
:1008E8004330F3000630F400843194248431F60157
:1008F800F60A033085318F25843123000E16210036
:100908000E161D101E088F3960389E001E11FC300F
:100918009E051D08033950389D009E171D140800B8
:100928007403031D982C992CAD2C22008E1172088B
:1009380086008701010824009100141CA42CA52C12
:10094800A12C7308860087011108810022008E15EA
:10095800DD2C22008E11F501D52C11082400141865
:10096800B62CB72CB12C72087507860087010108D0
:100978009100141CC02CC12CBD2C951FC42CC52C57
:10098800CD2C95137308750786008701FF30810009
:10099800D32C730875078600870111088100013080
:1009A800F50774087502031CDA2CDB2CB22C220024
:1009B8008E152D30F0000030F1008131E8218431AE
:1009C80008002230FC000130FD007C30F2007A3053
:1009D800F3000230F40084319424843120004B0861
:1009E800F9008331442384312730FC007030FD0046
:1009F8007C30F2007A30F3000230F4008431942421
:100A0800843120001F111F08FC3901389F009D0107
:100A18007D309E001F1521000E1222000E122100AB
:100A28000E112C009913191202303D00A200C0309B
:100A38002C0097006F3098001F08FC3901389F0080
:100A4800991721000E122C009C131C1203303D0034
:100A5800A4002C009A019B011F08F33904389F0059
:100A68009C1708002000C5016130BD000130C60098
:100A78000030C700200046083D3E86008701FF3051
:100A880081000130C6070030C73D4708803AF700AB
:100A980080307702031D522D07304602031C552D66
:100AA800562D3E2D3D30F2007608F3000730F40055
:100AB8008431942485317608063E860087017608BD
:100AC800053E840085010008F7007608043E84008E
:100AD80085010008F8007608033E840085010008B7
:100AE800F9007608023E840085010008FA00760ABB
:100AF8008400850100087A077907780777070107D6
:100B08002000C400440A031D8A2D8B2D8D2D013031
:100B1800C500450808002000BF002308C200C21510
:100B2800760801394211031D42154213C2124212BE
:100B3800C02DC21442140130823119228531D92DB9
:100B4800C21442100130823119228531D92DC214C4
:100B580042100130823119228531D92DC214421038
:100B68000030823119228531D92DC210421000304F
:100B7800823119228531D92D3F08F700F80178080C
:100B8800003A0319C82DD92D7708003A03199D2D6D
:100B9800013A0319A42D033A0319AB2D013A03199D
:100BA800B22D073A0319B92DD92D20302000C000E5
:100BB8004208C1004030F2003D30F3000230F4003A
:100BC8008431942485311030F0002730F1008131D0
:100BD800E821853108002000C600C701DC30F70095
:100BE8000530F8000F30F9004830FA008231D6227B
:100BF8008531FA014830FB0000308331812385318B
:100C08004830FA008331C02385313C302000CA00C7
:100C1800CB014A30F2004830F3000230F40084314E
:100C28009424853121302000CA003F30CB004A305F
:100C3800F2004830F3000230F40084319424853106
:100C480022302000CA000330CB004A30F20048307E
:100C5800F3000230F4008431942485314830F600E2
:100C68002000450884310124853123302000CA0042
:100C78000330CB004A30F2004830F3000230F40071
:100C880084319424853125302000CA0046087F39F4
:100C9800CB004A30F2004830F3000230F4008431CF
:100CA8009424853127302000CA007030CB004A30A8
:100CB800F2004830F3000230F40084319424853186
:100CC8008131F22185318131FF218531F601F60A22
:100CD800043085318F2585314830F6000030823167
:100CE8002A228531200049080C3903197C2E7D2ED3
:100CF8007F2E0130C7004708080021000C10220091
:100D08000C1021008C10003082311922863121000C
:100D18008E1623008E1221008C1623008C122000C0
:100D28008C1E972E982E9A2E0130A70082314C22C5
:100D3800863106302000C5002A308531EF258631FE
:100D4800003A0319A82EA92EAA2EC22E2000650C3F
:100D58002200031C0C1003180C1420006503031D4B
:100D6800B62EB82E0130B92E0030E5001030F00054
:100D78002730F1008131E8218631AA2E200027088A
:100D8800031DC72EC82ED12E6630CB008431E52432
:100D9800863103302000A600CA2F2703031DD52E55
:100DA800D62EDE2E6630F9008431472486312000A5
:100DB800A601CA2FCA2F21009D18E32EE42ECA2FA0
:100DC8001D0C890C3F39143A031DEB2EEC2EF92E1D
:100DD8001C082000B60021001B082000B7002100D5
:100DE8001D08033948389D00152F1C082000B8003D
:100DF80021001B082000B90021001D0803395038C4
:100E08009D0020003608F0003708F1003808F2008D
:100E18003908F30001308231882286310130200000
:100E2800A60021009D14CA2F2F30F60082310C2213
:100E3800863120002F088231A72286310230200017
:100E4800A600CA2F8E1A292F2A2FCA2F2F30F60054
:100E580082310C22863127302000B6007030B7006E
:100E68003630F2002F30F3000230F400843194243D
:100E780086312F30F60082310C22863120002F086F
:100E88007039031D482F492F342F05302000A60044
:100E9800CA2F22000C14CA2F8E1A532F542FCA2F70
:100EA8002F30F60082310C22863120002F1F5D2F53
:100EB8005E2F602F0430A6005F08D6005E08D500BC
:100EC8005530F2002F30F3000230F40084319424BE
:100ED8008631CA2F2F30F60085313625863120001D
:100EE800D70057080319792F7A2F492F3003031D8C
:100EF8007E2F7F2F492F3108003ED800FE30303D2D
:100F0800D90002305902013003195802031C8D2FF1
:100F18008E2F962F0130D835D90D890B8F2F0130A0
:100F2800A400A72FFE30F000FF30F1005908F300AD
:100F38005808F20082316922863171082000D900F0
:100F48007008D800A4012C00991320002408250655
:100F58000319AF2FB02FC32F24080319B42FB52FAF
:100F6800BB2F02303D00A20022000E12C02F02301B
:100F78003D00A40022000E1120002408A500C03066
:100F88002C0097003F3098009917492F2000260819
:100F9800D300D4015408003A0319D32FCA2F530899
:100FA800003A0319DF2E013A0319182F033A0319DF
:100FB800262F013A0319502F073A03196E2F013AC9
:100FC80003194D2FCA2F803102283B30840082300C
:100FD80085005A3086000030870011308131E221C7
:100FE800873120308400003085001D308131DC21BC
:080FF800873120008631812EB3
:020000040001F9
:04000E00EC3FF33F91
:00000001FF
