:040000008031202803
:100008007E1480312700931E0A280B281E2893127D
:100018002730F9007030FA007930F2007B30F300B5
:100028000230F4008231432280317B082000D60060
:100038000130F6007E1009008031222860308400EB
:100048008430850045308600003087000D308431CB
:1000580082248031FD01D201D301D401D501D6011A
:10006800D701D801D901DA01DB017E1020008031E7
:100078003D2821000C1022000C1021008C100030AB
:1000880084313C24803121008C1623008C122000FE
:100098008C1E4F28502852280130FD0021008E1652
:1000A80023008E122700981621000E1018303D00EC
:1000B800A00021008E1423008E1011303C00A100F6
:1000C80021000C1119303D00920021000E11220070
:1000D8000E1524009417141795161512F03095056F
:1000E8002000BE010430B3003F30B4002A30803114
:1000F800F0208031003A03198228832886280130AD
:100108002000BE0020003F08D6003E0803198D28B5
:100118008E28ED287D08031D92289328ED282200BB
:100128000C1422302000C1000130C2004130A2006E
:100138004330A3000230A40081318F218031200098
:100148004308D6004D30AE000530AF004330B00054
:1001580083312323803120004308D6002730C10093
:100168007030C2004130A2004330A3000230A40026
:1001780081318F21803120004308D6001F111F08CC
:10018800FC3901389F009D017D309E001F1521001C
:100198008E112C009913191202303D00A300C030B3
:1001A8002C0097006F3098001F08FC3901389F0019
:1001B800991721000E122C009C131C1203303D00CD
:1001C800A4002C009A019B011F08F33904389F00F2
:1001D8009C17ED28803120282000B500B601DC30BE
:1001E800A7000530A8000F30A9003408AA00833101
:1001F800DD2380312000AA013408AB0000308331B0
:100208006323803120003408AA008231E022803143
:100218003C302000B800B9013830A2003408A300EF
:100228000230A40081318F21803121302000B800B4
:100238003F30B9003830A2003408A3000230A400CF
:1002480081318F21803122302000B8000330B9007D
:100258003830A2003408A3000230A40081318F2175
:10026800803120003408A60033088231942280317E
:1002780023302000B8000330B9003830A200340819
:10028800A3000230A40081318F2180312530200065
:10029800B80035087F39B9003830A2003408A30007
:1002A8000230A40081318F21803127302000B8002E
:1002B8007030B9003830A2003408A3000230A4001E
:1002C80081318F2180318431272480318431122477
:1002D80080312000A601A60A3408A7000430813125
:1002E800EC21803120003408A600003084314E24EF
:1002F80080312000340A860087010108B700B71D45
:10030800862987298D29371D8A298B298D2901302E
:10031800B6003608080020002403031D94299529F7
:10032800AC2922000E11200022088600870101084E
:1003380024009100141CA129A2299E292000230829
:100348008600870124001108810022000E15E32988
:1003580022000E112000A501DB2911082400141821
:10036800B629B729B1292000220825078600870168
:10037800010824009100141CC229C329BF29951F14
:10038800C629C729D02995132000230825078600E8
:100398008701FF308100D82920002308250786001F
:1003A800870124001108810001302000A5072408D6
:1003B8002502031CE029E129B22922000E152D305F
:1003C8002000A0000030A10084316D248131080094
:1003D8002000AA005508AD00AD15260801392D11D9
:1003E800031D2D152D13AD122D12132AAD142D1426
:1003F80022000C162C2AAD142D1022000C162C2AC3
:10040800AD142D1022000C162C2AAD142D1022002C
:100418000C122C2AAD102D1022000C122C2A2A089E
:10042800A800A9012908003A03191B2A2C2A280820
:10043800003A0319FA29013A0319FF29033A031963
:10044800042A013A0319092A073A03190E2A2C2A01
:1004580020302000AB002D08AC002B30A20027086C
:10046800A3000230A40081318F2181311030200097
:10047800A0002730A10084316D2481310800740365
:10048800031D472A482A5C2A22000E11720886009A
:100498008701010824009100141C532A542A502A69
:1004A8007308860087011108810022000E158C2A26
:1004B80022000E11F501842A110824001418652A57
:1004C800662A602A7208750786008701010891006C
:1004D800141C6F2A702A6C2A951F732A742A7C2A86
:1004E80095137308750786008701FF308100822AFB
:1004F8007308750786008701110881000130F50728
:1005080074087502031C892A8A2A612A22000E159A
:100518002D30F0000030F100843178248231080059
:100528002000A7003130A8002708A9002830A20021
:100538002608A3000230A40081318F218231323095
:100548002000A8002830A2002608A3000230A4003A
:1005580081318F21823133302000A8002830A20059
:100568002608A3000230A40081318F218231343063
:100578002000A8002830A2002608A3000230A4000A
:1005880081318F21823135302000A8002830A20027
:100598002608A3000230A40081318F218231363031
:1005A8002000A8002830A2002608A3000230A400DA
:1005B80081318F21823108002F302000A6001D30A4
:1005C80084314E24823120004808AC004708AB0033
:1005D8002B30A2002A08A3000230A40081318F2109
:1005E800823131302000A6001D3084314E24823102
:1005F800200032080319012B022B222B4608AE00DB
:100608004508AD0030083206031D0B2B0C2B152BAB
:100618002D30A2002A08A3000230A40081318F21C6
:1006280082311D302000AD00AE012D30A2002A0815
:10063800A3000230A40081318F21823108002000FC
:10064800A601A60A3008A70000308131EC218331C9
:1006580027302000B1007030B2003130A2003008DD
:10066800A3000230A40081318F2183312A30200079
:10067800B1002E08860087010108B2002E0A860004
:1006880087010108B3002E08023E86008701010891
:10069800B4002E08033E860087010108B5002E0825
:1006A800043E860087010108B6003130A2003008F8
:1006B800A3000630A40081318F2183310800200077
:1006C800B0002B08A600063084314E248331200068
:1006D8002B0A860087010108B1002A08AC00AC0D7E
:1006E80031082C06F9392C06B1003008AC0001306D
:1006F800AC36890B7C2B2C080139AD00AD0EAD0D45
:1007080031082D06DF392D06B10030080139AC005B
:10071800AC0DAC0DAC0D31082C06F7392C06B10028
:100728002630AE003108AF002E30A2002B08A300FF
:100738000230A40081318F21833108002000A401F8
:10074800A501200821040319AA2BAB2BD82B0130B3
:10075800A600B52B0130A035A10D890BAF2B0130B8
:10076800A607A11FB82BB92BAE2B0130A435A50DB8
:10077800890BBA2B21082302031DC42B200822024F
:10078800031CC72BC82BCD2B2008A2022108A33B92
:1007980024140130A136A00C890BCE2B0130A602FF
:1007A800031DD72BD82BB92B2508A1002408A0009E
:1007B8000800FA302000A0000030A1002808A3009B
:1007C8002708A2008331A223833120002008FF3E9E
:1007D800AC00FF30213DAD000F302802A1300319D5
:1007E8002702031CF82BF92BFD2B0F30AC0000302F
:1007F800AD002430AE002C08AB000430AB35890BBB
:10080800022C2B082904AF002E30A2002A08A300CE
:100818000230A40081318F218331080020004B0869
:10082800A6002630A2002730A300A401A40A813123
:100838008F21843164302000A0000030A100843171
:100848006D248431080020004C08A6002630A20040
:100858002730A300A401A40A81318F218431643098
:100868002000A0000030A10084316D2484310800EC
:100878002000A0002008031D422C432C462C2200F7
:100888008C104D2C2003031D4A2C4B2C4D2C220080
:100898008C1408002000A700A801A9012708A800B7
:1008A800FF30A9002830A2002608A3000230A400C7
:1008B80081318F21843108005034733450347334BB
:1008C80001348034E134E23430343034303431347B
:1008D8003134722CFF30A007FF30A13D2000A11F4A
:1008E800762C772C6E2C08007D2CFF30F007FF301B
:1008F800F13DF11F802C812C792C0800FE0012009C
:080908001E00FE0B832C0034DD
:020000040001F9
:04000E00EC3FF33F91
:00000001FF
